:04200000C2EF14F027
:08200800046ED8CF05F0E0CF13
:1020100006F00001E9CF0CF0EACF07F0E1CF08F0BD
:10202000E2CF09F0D9CF0AF0DACF0BF0F3CF12F0FC
:10203000F4CF13F0FACF14F0F5CF15F0F6CF16F079
:10204000F7CF17F000C00EF001C00FF002C010F083
:1020500003C011F09DA030EF10F09EB076EF10F0AD
:102060000EC000F00FC001F010C002F011C003F06C
:102070000CC0E9FF07C0EAFF078E08C0E1FF09C0F6
:10208000E2FF0AC0D9FF0BC0DAFF12C0F3FF13C092
:10209000F4FF14C0FAFF15C0F5FF16C0F6FF17C015
:1020A000F7FF045006C0E0FF05C0D8FF10004850FD
:1020B000070B006E4830016E013201321F0E01160F
:1020C00001504A24E96E000E4B20EA6E016A012A93
:1020D000002A01D00136002EFDD7495203E00150FD
:1020E000EF1203D0011E0150EF1612001A2A1A50E7
:1020F000030801E21A6ACD6AD8901A34036A1B0FEA
:10210000E96E000E0320EA6EECCFCFFFED52EFCF69
:10211000CEFF0000036A1A50230FE96E000E032061
:10212000EA6EEF2C12D027C048F0010E496E0F0E58
:102130004B6E890E4A6EBBDF27C048F0496A0F0E0E
:102140004B6E920E4A6EB3DF10D027C048F0496A3A
:102150000F0E4B6E890E4A6EAADF27C048F0496AFF
:102160000F0E4B6E920E4A6EA2DF950ECD6E9E90B4
:1021700030EF10F01A6ACF6ACE6A00009D80C00E60
:10218000F2122AC028F029C027F0196AF2BE198E6F
:10219000F29E27C048F0010E496E0F0E4B6E890E5D
:1021A0004A6E85DF19BEF28E196AF2BE198EF29E52
:1021B00027C048F0496A0F0E4B6E920E4A6E77DFC9
:1021C00019BEF28E950ECD6EE9EF14F0EA6A2A0E72
:1021D000E96EEF500EE00F0E016E006A002EFED782
:1021E000012EFBD78F0E006E002EFED70000EF2EC3
:1021F000F2D712008E0E006E2FC001F02EC002F03A
:10220000036A015209E102C001F0026A080E005E91
:10221000015202E1006A08D0D89001BE04D0023613
:1022200001360006F9D7019E9FEF14F03650D8B45E
:1022300071D0006E3A50D8B46DD0002604E3810E00
:10224000002668E204D07F0E005E64E363E037C0DE
:102250003EF03B503E1A378E3B8E39503D02F4CF54
:1022600040F038503C02F4CF03F0F3CF3FF03D0292
:10227000F3504026F4503F22000E032239503C0216
:10228000F3504026F4503F22000E026A032202223D
:1022900037503D02F3503F26F4500322000E022235
:1022A00037503C02F3500326F4500222000E016A1C
:1022B000012239503B02F3503F26F4500322000E16
:1022C0000222012238503B02F3500326F45002222E
:1022D000000E012237503B02F3500226F450012237
:1022E000002A01BE05D03F3603360236013600060D
:1022F000000E3FAE0AD0032A02220122015005E15E
:10230000025003E1035001E1002A3EBE018E3EAEC1
:10231000019E04D0006A016A026A036A120037C093
:102320003EF03B503E1A3EAE05D0D894D89037BE12
:10233000D8802FD037C03EF03AC03FF036503F5ED5
:1023400006E03EAE26D0D850010AD86E22D03BC05F
:102350003FF037503F5E06E03EAE1BD0D850010A3A
:10236000D86E17D03CC03FF038503F5E06E03EAE1E
:1023700010D0D850010AD86E0CD03DC03FF0395073
:102380003F5E06E03EAE05D0D850010AD86E01D0BF
:10239000D89012003A50D8B4A5D0466E3E50D8B46A
:1023A000A1D0465E05E37F0E4626D8B09BD006D06E
:1023B000810E465ED8A096D0D8B494D046C000F026
:1023C000016A026A036A456A3BC044F0448E3CC01D
:1023D00043F03DC042F0190E466E4150425E0DE2A0
:1023E000010E435E0AE2445E08E2455E06E2452ACB
:1023F000442A432A4150422628D04050435E12E2EC
:10240000010E445E0FE2455E0DE2452A442A40502B
:1024100043264150422619E3432A17E1442A15E195
:10242000452A13D03F508009445E0EE2010E455EFE
:102430000BE2452A3F508009442640504326E9E3F9
:10244000442AE7E1452AE5D70380462E01D00BD088
:10245000D8904236433644364536D8900336023655
:1024600001364736BAD747A006D0D890013202329B
:102470000332473202D0000635E047BE1ED0D89066
:1024800042364336443645364150425E07E2010E3D
:10249000435E04E2445E02E2455E1AE34050435E5E
:1024A00005E2010E445E02E2455E12E33F50800900
:1024B000445E03E2010E455E0BE3032A09E1022AB2
:1024C00007E1012A05E1002A0DE001320232033260
:1024D0003BC046F03F50461A46AE02D0018E06D0B1
:1024E000019E04D0006A016A026A036A1200800E2B
:1024F000D8B23B1A406A416A37C03FF03B503F1A9E
:102500003650D8B4DCD03E6E006E3A50D8B4E0D02D
:102510003E5ED8B481D03DE33BC044F0448E3CC025
:1025200043F03DC042F0416AD890443243324232D7
:1025300041323E2EF8D73FAE03D04080DDD04090F0
:102540003E904088EA6A390EE96EE9D040983FBE75
:102550000AD03EA013D04432433242324132002AE4
:10256000D8B4C5D00BD044BE0CD0D890413642363A
:10257000433644360006D8B4BAD0F5D7408C6BD079
:10258000409C37C03FF037AE02D0448EA9D0449E65
:10259000A7D03AC03EF03AC000F036503E5E37C099
:1025A00044F0448E38C043F039C042F0416AD890BC
:1025B00044324332423241323E2EF8D73FAE03D04E
:1025C00040829AD040923E90408AEA6A3D0EE96E7F
:1025D000A6D0409A3FBE0AD03EA013D04432433228
:1025E00042324132002AD8B482D00BD044BE0CD043
:1025F000D89041364236433644360006D8B477D0B8
:10260000F5D7408E28D0409E3BC03FF03BAE02D075
:10261000448E66D0449E64D03BC044F0448E3CC09F
:1026200043F03DC042F03FAE04D0449E408464D0AD
:102630004094416A3E90EA6A390EE96E70D03FBE1E
:102640001CD037C03FF03EA006D044324332423265
:102650004132002A4CE041AE0BD0422A09E1432A24
:1026600007E1442A05E1443243324232002A3FE086
:1026700040BC86D740BEC7D71CD0800E441A44AE9B
:1026800004D03AD03BC03FF00AD037C03FF04452AC
:1026900006E1435204E1425202E1006A21D044BE05
:1026A00008D0D8904136423643364436002EF7D70C
:1026B0001ED03FAE02D0448E13D0449E11D03AC0FB
:1026C00000F03BC044F03CC043F03DC042F008D0B5
:1026D00036C000F037C044F038C043F039C042F093
:1026E00044C001F043C002F042C003F034D0006A9D
:1026F000016A026A036A2FD0416A421E431E441EC9
:10270000411E412A05E1422A03E1432A01E1442A0C
:1027100040B015D740B256D740B48AD7B3D7EF50A0
:10272000422605E3432A03E1442AD8B43E80ED5211
:10273000EF50432603E3442AD8B43E80ED52EF50D5
:10274000EFBE01D0800A4426D8B03E8040B8FED605
:1027500040BA3FD774D712008E0E006E3650005E1E
:1027600037C002F038C001F0028E005209E0D89064
:10277000025202E1015204E002320132002EF7D788
:1027800037AE05D0011E021E012AD8B4022A12005B
:10279000990E396EBB0E386E160E376E760E366E8B
:1027A00031C03DF030C03CF02FC03BF02EC03AF0BD
:1027B000B6DD08E3990E316EBB0E306E160E2F6E2D
:1027C000760E2E6E31C039F030C038F02FC037F0A1
:1027D0002EC036F03D6A3C6A3B6A3A6AA0DD04E3EB
:1027E000316A306A2F6A2E6A396A1B0E386E370ECC
:1027F000376E980E366E31C03DF030C03CF02FC0C1
:102800003BF02EC03AF012DD03C039F002C038F0C0
:1028100001C037F000C036F003C03DF002C03CF00C
:1028200001C03BF000C03AF0416A406A3F6A820E44
:102830003E6EB0DDD882396A38687F0E376E8E0EF4
:10284000366E03C03DF002C03CF001C03BF000C05A
:102850003AF04DDE03C039F002C038F001C037F065
:1028600000C036F079DF02C033F001C032F0D88208
:10287000990E396EBB0E386E160E376E760E366EAA
:1028800031C03DF030C03CF02FC03BF02EC03AF0DC
:102890002EDE396A1B0E386E370E376E980E366E86
:1028A00003C03DF002C03CF001C03BF000C03AF074
:1028B000BDDC03C039F002C038F001C037F000C001
:1028C00036F003C03DF002C03CF001C03BF000C058
:1028D0003AF0416A406A3F6A820E3E6E5BDDD88202
:1028E000396A38687F0E376E8E0E366E03C03DF043
:1028F00002C03CF001C03BF000C03AF0F8DD03C07C
:1029000039F002C038F001C037F000C036F024DFE3
:1029100002C035F001C034F033C01EF032C01DF0EB
:1029200035C020F034C01FF0C1EF14F02950B408B6
:1029300002E2B40E296E2F6A29C02EF05BD4240E59
:10294000396E600E386E560E376E6E0E366E03C0E0
:102950003DF002C03CF001C03BF000C03AF066DC44
:1029600003C02DF002C02CF001C02BF000C02AF0F3
:102970002DC031F02CC030F02BC02FF02AC02EF02B
:1029800007D71200F86AD09E078E1A6A286827684F
:10299000C150C00B0F09C16E070EB46E9F0E1B6EA7
:1029A000F60E1C6E1D681E68170E1F6ECA0E206E76
:1029B0003F0E216E2B0E226E010E236E246E256AB1
:1029C000266AFB0E946E7C0E2A6E120E296EBAEFEA
:1029D00010F0040E296EFA0E2A6EE6EC10F0292E85
:1029E000FAD7296AA3DF040E296EFA0E2A6EE6ECE6
:1029F00010F0292EFAD72D0E296E98DF040E296EBD
:102A0000FA0E2A6EE6EC10F0292EFAD75A0E296E2D
:102A10008DDF040E296EFA0E2A6EE6EC10F0292ED8
:102A2000FAD7870E296E82DF040E296EFA0E2A6EFF
:102A3000E6EC10F0292EFAD7B40E296E77DFC9D74D
:022A4000030091
:020000040030CA
:0E00000007CC3E1E0087A1000FC00FE00F408E
:00000001FF
;PIC18F4550
;CRC=1925  CREATED="13-sep.-23 13:21"
